{
  "_format": "hh-sol-artifact-1",
  "contractName": "MinHub",
  "sourceName": "contracts/MinHub.sol",
  "abi": [
    {
      "inputs": [
        {
          "internalType": "string",
          "name": "_name",
          "type": "string"
        },
        {
          "internalType": "string",
          "name": "_symbol",
          "type": "string"
        },
        {
          "internalType": "string",
          "name": "_initBaseURI",
          "type": "string"
        },
        {
          "internalType": "string",
          "name": "_initNotRevealedUri",
          "type": "string"
        }
      ],
      "stateMutability": "nonpayable",
      "type": "constructor"
    },
    {
      "anonymous": false,
      "inputs": [
        {
          "indexed": true,
          "internalType": "address",
          "name": "owner",
          "type": "address"
        },
        {
          "indexed": true,
          "internalType": "address",
          "name": "approved",
          "type": "address"
        },
        {
          "indexed": true,
          "internalType": "uint256",
          "name": "tokenId",
          "type": "uint256"
        }
      ],
      "name": "Approval",
      "type": "event"
    },
    {
      "anonymous": false,
      "inputs": [
        {
          "indexed": true,
          "internalType": "address",
          "name": "owner",
          "type": "address"
        },
        {
          "indexed": true,
          "internalType": "address",
          "name": "operator",
          "type": "address"
        },
        {
          "indexed": false,
          "internalType": "bool",
          "name": "approved",
          "type": "bool"
        }
      ],
      "name": "ApprovalForAll",
      "type": "event"
    },
    {
      "anonymous": false,
      "inputs": [
        {
          "indexed": true,
          "internalType": "address",
          "name": "previousOwner",
          "type": "address"
        },
        {
          "indexed": true,
          "internalType": "address",
          "name": "newOwner",
          "type": "address"
        }
      ],
      "name": "OwnershipTransferred",
      "type": "event"
    },
    {
      "anonymous": false,
      "inputs": [
        {
          "indexed": true,
          "internalType": "address",
          "name": "from",
          "type": "address"
        },
        {
          "indexed": true,
          "internalType": "address",
          "name": "to",
          "type": "address"
        },
        {
          "indexed": true,
          "internalType": "uint256",
          "name": "tokenId",
          "type": "uint256"
        }
      ],
      "name": "Transfer",
      "type": "event"
    },
    {
      "inputs": [
        {
          "internalType": "address",
          "name": "to",
          "type": "address"
        },
        {
          "internalType": "uint256",
          "name": "tokenId",
          "type": "uint256"
        }
      ],
      "name": "approve",
      "outputs": [],
      "stateMutability": "nonpayable",
      "type": "function"
    },
    {
      "inputs": [
        {
          "internalType": "address",
          "name": "owner",
          "type": "address"
        }
      ],
      "name": "balanceOf",
      "outputs": [
        {
          "internalType": "uint256",
          "name": "",
          "type": "uint256"
        }
      ],
      "stateMutability": "view",
      "type": "function"
    },
    {
      "inputs": [],
      "name": "baseExtension",
      "outputs": [
        {
          "internalType": "string",
          "name": "",
          "type": "string"
        }
      ],
      "stateMutability": "view",
      "type": "function"
    },
    {
      "inputs": [],
      "name": "baseURI",
      "outputs": [
        {
          "internalType": "string",
          "name": "",
          "type": "string"
        }
      ],
      "stateMutability": "view",
      "type": "function"
    },
    {
      "inputs": [],
      "name": "cost",
      "outputs": [
        {
          "internalType": "uint256",
          "name": "",
          "type": "uint256"
        }
      ],
      "stateMutability": "view",
      "type": "function"
    },
    {
      "inputs": [
        {
          "internalType": "uint256",
          "name": "tokenId",
          "type": "uint256"
        }
      ],
      "name": "getApproved",
      "outputs": [
        {
          "internalType": "address",
          "name": "",
          "type": "address"
        }
      ],
      "stateMutability": "view",
      "type": "function"
    },
    {
      "inputs": [
        {
          "internalType": "address",
          "name": "owner",
          "type": "address"
        },
        {
          "internalType": "address",
          "name": "operator",
          "type": "address"
        }
      ],
      "name": "isApprovedForAll",
      "outputs": [
        {
          "internalType": "bool",
          "name": "",
          "type": "bool"
        }
      ],
      "stateMutability": "view",
      "type": "function"
    },
    {
      "inputs": [],
      "name": "maxMintAmount",
      "outputs": [
        {
          "internalType": "uint256",
          "name": "",
          "type": "uint256"
        }
      ],
      "stateMutability": "view",
      "type": "function"
    },
    {
      "inputs": [],
      "name": "maxSupply",
      "outputs": [
        {
          "internalType": "uint256",
          "name": "",
          "type": "uint256"
        }
      ],
      "stateMutability": "view",
      "type": "function"
    },
    {
      "inputs": [
        {
          "internalType": "uint256",
          "name": "_mintAmount",
          "type": "uint256"
        }
      ],
      "name": "mint",
      "outputs": [],
      "stateMutability": "payable",
      "type": "function"
    },
    {
      "inputs": [],
      "name": "name",
      "outputs": [
        {
          "internalType": "string",
          "name": "",
          "type": "string"
        }
      ],
      "stateMutability": "view",
      "type": "function"
    },
    {
      "inputs": [],
      "name": "nftPerAddressLimit",
      "outputs": [
        {
          "internalType": "uint256",
          "name": "",
          "type": "uint256"
        }
      ],
      "stateMutability": "view",
      "type": "function"
    },
    {
      "inputs": [],
      "name": "notRevealedUri",
      "outputs": [
        {
          "internalType": "string",
          "name": "",
          "type": "string"
        }
      ],
      "stateMutability": "view",
      "type": "function"
    },
    {
      "inputs": [],
      "name": "owner",
      "outputs": [
        {
          "internalType": "address",
          "name": "",
          "type": "address"
        }
      ],
      "stateMutability": "view",
      "type": "function"
    },
    {
      "inputs": [
        {
          "internalType": "uint256",
          "name": "tokenId",
          "type": "uint256"
        }
      ],
      "name": "ownerOf",
      "outputs": [
        {
          "internalType": "address",
          "name": "",
          "type": "address"
        }
      ],
      "stateMutability": "view",
      "type": "function"
    },
    {
      "inputs": [],
      "name": "renounceOwnership",
      "outputs": [],
      "stateMutability": "nonpayable",
      "type": "function"
    },
    {
      "inputs": [],
      "name": "reveal",
      "outputs": [],
      "stateMutability": "nonpayable",
      "type": "function"
    },
    {
      "inputs": [],
      "name": "revealed",
      "outputs": [
        {
          "internalType": "bool",
          "name": "",
          "type": "bool"
        }
      ],
      "stateMutability": "view",
      "type": "function"
    },
    {
      "inputs": [
        {
          "internalType": "address",
          "name": "from",
          "type": "address"
        },
        {
          "internalType": "address",
          "name": "to",
          "type": "address"
        },
        {
          "internalType": "uint256",
          "name": "tokenId",
          "type": "uint256"
        }
      ],
      "name": "safeTransferFrom",
      "outputs": [],
      "stateMutability": "nonpayable",
      "type": "function"
    },
    {
      "inputs": [
        {
          "internalType": "address",
          "name": "from",
          "type": "address"
        },
        {
          "internalType": "address",
          "name": "to",
          "type": "address"
        },
        {
          "internalType": "uint256",
          "name": "tokenId",
          "type": "uint256"
        },
        {
          "internalType": "bytes",
          "name": "_data",
          "type": "bytes"
        }
      ],
      "name": "safeTransferFrom",
      "outputs": [],
      "stateMutability": "nonpayable",
      "type": "function"
    },
    {
      "inputs": [
        {
          "internalType": "address",
          "name": "operator",
          "type": "address"
        },
        {
          "internalType": "bool",
          "name": "approved",
          "type": "bool"
        }
      ],
      "name": "setApprovalForAll",
      "outputs": [],
      "stateMutability": "nonpayable",
      "type": "function"
    },
    {
      "inputs": [
        {
          "internalType": "string",
          "name": "_newBaseExtension",
          "type": "string"
        }
      ],
      "name": "setBaseExtension",
      "outputs": [],
      "stateMutability": "nonpayable",
      "type": "function"
    },
    {
      "inputs": [
        {
          "internalType": "string",
          "name": "_newBaseURI",
          "type": "string"
        }
      ],
      "name": "setBaseURI",
      "outputs": [],
      "stateMutability": "nonpayable",
      "type": "function"
    },
    {
      "inputs": [
        {
          "internalType": "uint256",
          "name": "_newCost",
          "type": "uint256"
        }
      ],
      "name": "setCost",
      "outputs": [],
      "stateMutability": "nonpayable",
      "type": "function"
    },
    {
      "inputs": [
        {
          "internalType": "uint256",
          "name": "_limit",
          "type": "uint256"
        }
      ],
      "name": "setNftPerAddressLimit",
      "outputs": [],
      "stateMutability": "nonpayable",
      "type": "function"
    },
    {
      "inputs": [
        {
          "internalType": "string",
          "name": "_notRevealedURI",
          "type": "string"
        }
      ],
      "name": "setNotRevealedURI",
      "outputs": [],
      "stateMutability": "nonpayable",
      "type": "function"
    },
    {
      "inputs": [
        {
          "internalType": "uint256",
          "name": "_maxSupply",
          "type": "uint256"
        }
      ],
      "name": "setTotalSupply",
      "outputs": [],
      "stateMutability": "nonpayable",
      "type": "function"
    },
    {
      "inputs": [
        {
          "internalType": "uint256",
          "name": "_newmaxMintAmount",
          "type": "uint256"
        }
      ],
      "name": "setmaxMintAmount",
      "outputs": [],
      "stateMutability": "nonpayable",
      "type": "function"
    },
    {
      "inputs": [
        {
          "internalType": "bytes4",
          "name": "interfaceId",
          "type": "bytes4"
        }
      ],
      "name": "supportsInterface",
      "outputs": [
        {
          "internalType": "bool",
          "name": "",
          "type": "bool"
        }
      ],
      "stateMutability": "view",
      "type": "function"
    },
    {
      "inputs": [],
      "name": "symbol",
      "outputs": [
        {
          "internalType": "string",
          "name": "",
          "type": "string"
        }
      ],
      "stateMutability": "view",
      "type": "function"
    },
    {
      "inputs": [
        {
          "internalType": "uint256",
          "name": "index",
          "type": "uint256"
        }
      ],
      "name": "tokenByIndex",
      "outputs": [
        {
          "internalType": "uint256",
          "name": "",
          "type": "uint256"
        }
      ],
      "stateMutability": "view",
      "type": "function"
    },
    {
      "inputs": [
        {
          "internalType": "address",
          "name": "owner",
          "type": "address"
        },
        {
          "internalType": "uint256",
          "name": "index",
          "type": "uint256"
        }
      ],
      "name": "tokenOfOwnerByIndex",
      "outputs": [
        {
          "internalType": "uint256",
          "name": "",
          "type": "uint256"
        }
      ],
      "stateMutability": "view",
      "type": "function"
    },
    {
      "inputs": [
        {
          "internalType": "uint256",
          "name": "tokenId",
          "type": "uint256"
        }
      ],
      "name": "tokenURI",
      "outputs": [
        {
          "internalType": "string",
          "name": "",
          "type": "string"
        }
      ],
      "stateMutability": "view",
      "type": "function"
    },
    {
      "inputs": [],
      "name": "totalSupply",
      "outputs": [
        {
          "internalType": "uint256",
          "name": "",
          "type": "uint256"
        }
      ],
      "stateMutability": "view",
      "type": "function"
    },
    {
      "inputs": [
        {
          "internalType": "address",
          "name": "from",
          "type": "address"
        },
        {
          "internalType": "address",
          "name": "to",
          "type": "address"
        },
        {
          "internalType": "uint256",
          "name": "tokenId",
          "type": "uint256"
        }
      ],
      "name": "transferFrom",
      "outputs": [],
      "stateMutability": "nonpayable",
      "type": "function"
    },
    {
      "inputs": [
        {
          "internalType": "address",
          "name": "newOwner",
          "type": "address"
        }
      ],
      "name": "transferOwnership",
      "outputs": [],
      "stateMutability": "nonpayable",
      "type": "function"
    },
    {
      "inputs": [
        {
          "internalType": "address",
          "name": "_owner",
          "type": "address"
        }
      ],
      "name": "walletOfOwner",
      "outputs": [
        {
          "internalType": "uint256[]",
          "name": "",
          "type": "uint256[]"
        }
      ],
      "stateMutability": "view",
      "type": "function"
    },
    {
      "inputs": [],
      "name": "withdraw",
      "outputs": [],
      "stateMutability": "payable",
      "type": "function"
    }
  ],
  "bytecode": "0x60806040526040518060400160405280600581526020017f2e6a736f6e000000000000000000000000000000000000000000000000000000815250600c90816200004a9190620005e2565b5066b1a2bc2ec50000600f556103e8601055600a60115560036012556000601360006101000a81548160ff0219169083151502179055503480156200008e57600080fd5b50604051620054e4380380620054e48339818101604052810190620000b491906200082d565b83838160009081620000c79190620005e2565b508060019081620000d99190620005e2565b505050620000fc620000f06200012860201b60201c565b6200013060201b60201c565b6200010d82620001f660201b60201c565b6200011e816200029a60201b60201c565b505050506200099e565b600033905090565b6000600a60009054906101000a900473ffffffffffffffffffffffffffffffffffffffff16905081600a60006101000a81548173ffffffffffffffffffffffffffffffffffffffff021916908373ffffffffffffffffffffffffffffffffffffffff1602179055508173ffffffffffffffffffffffffffffffffffffffff168173ffffffffffffffffffffffffffffffffffffffff167f8be0079c531659141344cd1fd0a4f28419497f9722a3daafe3b4186f6b6457e060405160405180910390a35050565b620002066200012860201b60201c565b73ffffffffffffffffffffffffffffffffffffffff166200022c6200033e60201b60201c565b73ffffffffffffffffffffffffffffffffffffffff161462000285576040517f08c379a00000000000000000000000000000000000000000000000000000000081526004016200027c906200097c565b60405180910390fd5b80600b9081620002969190620005e2565b5050565b620002aa6200012860201b60201c565b73ffffffffffffffffffffffffffffffffffffffff16620002d06200033e60201b60201c565b73ffffffffffffffffffffffffffffffffffffffff161462000329576040517f08c379a000000000000000000000000000000000000000000000000000000000815260040162000320906200097c565b60405180910390fd5b80600d90816200033a9190620005e2565b5050565b6000600a60009054906101000a900473ffffffffffffffffffffffffffffffffffffffff16905090565b600081519050919050565b7f4e487b7100000000000000000000000000000000000000000000000000000000600052604160045260246000fd5b7f4e487b7100000000000000000000000000000000000000000000000000000000600052602260045260246000fd5b60006002820490506001821680620003ea57607f821691505b6020821081036200040057620003ff620003a2565b5b50919050565b60008190508160005260206000209050919050565b60006020601f8301049050919050565b600082821b905092915050565b6000600883026200046a7fffffffffffffffffffffffffffffffffffffffffffffffffffffffffffffffff826200042b565b6200047686836200042b565b95508019841693508086168417925050509392505050565b6000819050919050565b6000819050919050565b6000620004c3620004bd620004b7846200048e565b62000498565b6200048e565b9050919050565b6000819050919050565b620004df83620004a2565b620004f7620004ee82620004ca565b84845462000438565b825550505050565b600090565b6200050e620004ff565b6200051b818484620004d4565b505050565b5b8181101562000543576200053760008262000504565b60018101905062000521565b5050565b601f82111562000592576200055c8162000406565b62000567846200041b565b8101602085101562000577578190505b6200058f62000586856200041b565b83018262000520565b50505b505050565b600082821c905092915050565b6000620005b76000198460080262000597565b1980831691505092915050565b6000620005d28383620005a4565b9150826002028217905092915050565b620005ed8262000368565b67ffffffffffffffff81111562000609576200060862000373565b5b620006158254620003d1565b6200062282828562000547565b600060209050601f8311600181146200065a576000841562000645578287015190505b620006518582620005c4565b865550620006c1565b601f1984166200066a8662000406565b60005b8281101562000694578489015182556001820191506020850194506020810190506200066d565b86831015620006b45784890151620006b0601f891682620005a4565b8355505b6001600288020188555050505b505050505050565b6000604051905090565b600080fd5b600080fd5b600080fd5b600080fd5b6000601f19601f8301169050919050565b6200070382620006e7565b810181811067ffffffffffffffff8211171562000725576200072462000373565b5b80604052505050565b60006200073a620006c9565b9050620007488282620006f8565b919050565b600067ffffffffffffffff8211156200076b576200076a62000373565b5b6200077682620006e7565b9050602081019050919050565b60005b83811015620007a357808201518184015260208101905062000786565b60008484015250505050565b6000620007c6620007c0846200074d565b6200072e565b905082815260208101848484011115620007e557620007e4620006e2565b5b620007f284828562000783565b509392505050565b600082601f830112620008125762000811620006dd565b5b815162000824848260208601620007af565b91505092915050565b600080600080608085870312156200084a5762000849620006d3565b5b600085015167ffffffffffffffff8111156200086b576200086a620006d8565b5b6200087987828801620007fa565b945050602085015167ffffffffffffffff8111156200089d576200089c620006d8565b5b620008ab87828801620007fa565b935050604085015167ffffffffffffffff811115620008cf57620008ce620006d8565b5b620008dd87828801620007fa565b925050606085015167ffffffffffffffff811115620009015762000900620006d8565b5b6200090f87828801620007fa565b91505092959194509250565b600082825260208201905092915050565b7f4f776e61626c653a2063616c6c6572206973206e6f7420746865206f776e6572600082015250565b6000620009646020836200091b565b915062000971826200092c565b602082019050919050565b60006020820190508181036000830152620009978162000955565b9050919050565b614b3680620009ae6000396000f3fe6080604052600436106102255760003560e01c806370a0823111610123578063ba7d2c76116100ab578063da3ef23f1161006f578063da3ef23f146107db578063e985e9c514610804578063f2c4ce1e14610841578063f2fde38b1461086a578063f7ea7a3d1461089357610225565b8063ba7d2c76146106f4578063c66828621461071f578063c87b56dd1461074a578063d0eb26b014610787578063d5abeb01146107b057610225565b806395d89b41116100f257806395d89b4114610644578063a0712d681461066f578063a22cb4651461068b578063a475b5dd146106b4578063b88d4fde146106cb57610225565b806370a082311461059c578063715018a6146105d95780637f00c7a6146105f05780638da5cb5b1461061957610225565b80632f745c59116101b15780634f6ccce7116101755780634f6ccce7146104a357806351830227146104e057806355f804b31461050b5780636352211e146105345780636c0360eb1461057157610225565b80632f745c59146103cd5780633ccfd60b1461040a57806342842e0e14610414578063438b63001461043d57806344a0d68a1461047a57610225565b8063095ea7b3116101f8578063095ea7b3146102fa57806313faede61461032357806318160ddd1461034e578063239c70ae1461037957806323b872dd146103a457610225565b806301ffc9a71461022a57806306fdde0314610267578063081812fc14610292578063081c8c44146102cf575b600080fd5b34801561023657600080fd5b50610251600480360381019061024c91906130f3565b6108bc565b60405161025e919061313b565b60405180910390f35b34801561027357600080fd5b5061027c610936565b60405161028991906131e6565b60405180910390f35b34801561029e57600080fd5b506102b960048036038101906102b4919061323e565b6109c8565b6040516102c691906132ac565b60405180910390f35b3480156102db57600080fd5b506102e4610a4d565b6040516102f191906131e6565b60405180910390f35b34801561030657600080fd5b50610321600480360381019061031c91906132f3565b610adb565b005b34801561032f57600080fd5b50610338610bf2565b6040516103459190613342565b60405180910390f35b34801561035a57600080fd5b50610363610bf8565b6040516103709190613342565b60405180910390f35b34801561038557600080fd5b5061038e610c05565b60405161039b9190613342565b60405180910390f35b3480156103b057600080fd5b506103cb60048036038101906103c6919061335d565b610c0b565b005b3480156103d957600080fd5b506103f460048036038101906103ef91906132f3565b610c6b565b6040516104019190613342565b60405180910390f35b610412610d10565b005b34801561042057600080fd5b5061043b6004803603810190610436919061335d565b610e05565b005b34801561044957600080fd5b50610464600480360381019061045f91906133b0565b610e25565b604051610471919061349b565b60405180910390f35b34801561048657600080fd5b506104a1600480360381019061049c919061323e565b610ed3565b005b3480156104af57600080fd5b506104ca60048036038101906104c5919061323e565b610f59565b6040516104d79190613342565b60405180910390f35b3480156104ec57600080fd5b506104f5610fca565b604051610502919061313b565b60405180910390f35b34801561051757600080fd5b50610532600480360381019061052d91906135f2565b610fdd565b005b34801561054057600080fd5b5061055b6004803603810190610556919061323e565b61106c565b60405161056891906132ac565b60405180910390f35b34801561057d57600080fd5b5061058661111d565b60405161059391906131e6565b60405180910390f35b3480156105a857600080fd5b506105c360048036038101906105be91906133b0565b6111ab565b6040516105d09190613342565b60405180910390f35b3480156105e557600080fd5b506105ee611262565b005b3480156105fc57600080fd5b506106176004803603810190610612919061323e565b6112ea565b005b34801561062557600080fd5b5061062e611370565b60405161063b91906132ac565b60405180910390f35b34801561065057600080fd5b5061065961139a565b60405161066691906131e6565b60405180910390f35b6106896004803603810190610684919061323e565b61142c565b005b34801561069757600080fd5b506106b260048036038101906106ad9190613667565b611628565b005b3480156106c057600080fd5b506106c961163e565b005b3480156106d757600080fd5b506106f260048036038101906106ed9190613748565b6116d7565b005b34801561070057600080fd5b50610709611739565b6040516107169190613342565b60405180910390f35b34801561072b57600080fd5b5061073461173f565b60405161074191906131e6565b60405180910390f35b34801561075657600080fd5b50610771600480360381019061076c919061323e565b6117cd565b60405161077e91906131e6565b60405180910390f35b34801561079357600080fd5b506107ae60048036038101906107a9919061323e565b611925565b005b3480156107bc57600080fd5b506107c56119ab565b6040516107d29190613342565b60405180910390f35b3480156107e757600080fd5b5061080260048036038101906107fd91906135f2565b6119b1565b005b34801561081057600080fd5b5061082b600480360381019061082691906137cb565b611a40565b604051610838919061313b565b60405180910390f35b34801561084d57600080fd5b50610868600480360381019061086391906135f2565b611ad4565b005b34801561087657600080fd5b50610891600480360381019061088c91906133b0565b611b63565b005b34801561089f57600080fd5b506108ba60048036038101906108b5919061323e565b611c5a565b005b60007f780e9d63000000000000000000000000000000000000000000000000000000007bffffffffffffffffffffffffffffffffffffffffffffffffffffffff1916827bffffffffffffffffffffffffffffffffffffffffffffffffffffffff1916148061092f575061092e82611ce0565b5b9050919050565b6060600080546109459061383a565b80601f01602080910402602001604051908101604052809291908181526020018280546109719061383a565b80156109be5780601f10610993576101008083540402835291602001916109be565b820191906000526020600020905b8154815290600101906020018083116109a157829003601f168201915b5050505050905090565b60006109d382611dc2565b610a12576040517f08c379a0000000000000000000000000000000000000000000000000000000008152600401610a09906138dd565b60405180910390fd5b6004600083815260200190815260200160002060009054906101000a900473ffffffffffffffffffffffffffffffffffffffff169050919050565b600d8054610a5a9061383a565b80601f0160208091040260200160405190810160405280929190818152602001828054610a869061383a565b8015610ad35780601f10610aa857610100808354040283529160200191610ad3565b820191906000526020600020905b815481529060010190602001808311610ab657829003601f168201915b505050505081565b6000610ae68261106c565b90508073ffffffffffffffffffffffffffffffffffffffff168373ffffffffffffffffffffffffffffffffffffffff1603610b56576040517f08c379a0000000000000000000000000000000000000000000000000000000008152600401610b4d90613949565b60405180910390fd5b8073ffffffffffffffffffffffffffffffffffffffff16610b75611e2e565b73ffffffffffffffffffffffffffffffffffffffff161480610ba45750610ba381610b9e611e2e565b611a40565b5b610be3576040517f08c379a0000000000000000000000000000000000000000000000000000000008152600401610bda906139db565b60405180910390fd5b610bed8383611e36565b505050565b600f5481565b6000600880549050905090565b60115481565b610c1c610c16611e2e565b82611eef565b610c5b576040517f08c379a0000000000000000000000000000000000000000000000000000000008152600401610c5290613a6d565b60405180910390fd5b610c66838383611fcd565b505050565b6000610c76836111ab565b8210610cb7576040517f08c379a0000000000000000000000000000000000000000000000000000000008152600401610cae90613aff565b60405180910390fd5b600660008473ffffffffffffffffffffffffffffffffffffffff1673ffffffffffffffffffffffffffffffffffffffff168152602001908152602001600020600083815260200190815260200160002054905092915050565b610d18611e2e565b73ffffffffffffffffffffffffffffffffffffffff16610d36611370565b73ffffffffffffffffffffffffffffffffffffffff1614610d8c576040517f08c379a0000000000000000000000000000000000000000000000000000000008152600401610d8390613b6b565b60405180910390fd5b60003373ffffffffffffffffffffffffffffffffffffffff1647604051610db290613bbc565b60006040518083038185875af1925050503d8060008114610def576040519150601f19603f3d011682016040523d82523d6000602084013e610df4565b606091505b5050905080610e0257600080fd5b50565b610e20838383604051806020016040528060008152506116d7565b505050565b60606000610e32836111ab565b905060008167ffffffffffffffff811115610e5057610e4f6134c7565b5b604051908082528060200260200182016040528015610e7e5781602001602082028036833780820191505090505b50905060005b82811015610ec857610e968582610c6b565b828281518110610ea957610ea8613bd1565b5b6020026020010181815250508080610ec090613c2f565b915050610e84565b508092505050919050565b610edb611e2e565b73ffffffffffffffffffffffffffffffffffffffff16610ef9611370565b73ffffffffffffffffffffffffffffffffffffffff1614610f4f576040517f08c379a0000000000000000000000000000000000000000000000000000000008152600401610f4690613b6b565b60405180910390fd5b80600f8190555050565b6000610f63610bf8565b8210610fa4576040517f08c379a0000000000000000000000000000000000000000000000000000000008152600401610f9b90613ce9565b60405180910390fd5b60088281548110610fb857610fb7613bd1565b5b90600052602060002001549050919050565b601360009054906101000a900460ff1681565b610fe5611e2e565b73ffffffffffffffffffffffffffffffffffffffff16611003611370565b73ffffffffffffffffffffffffffffffffffffffff1614611059576040517f08c379a000000000000000000000000000000000000000000000000000000000815260040161105090613b6b565b60405180910390fd5b80600b90816110689190613eb5565b5050565b6000806002600084815260200190815260200160002060009054906101000a900473ffffffffffffffffffffffffffffffffffffffff169050600073ffffffffffffffffffffffffffffffffffffffff168173ffffffffffffffffffffffffffffffffffffffff1603611114576040517f08c379a000000000000000000000000000000000000000000000000000000000815260040161110b90613ff9565b60405180910390fd5b80915050919050565b600b805461112a9061383a565b80601f01602080910402602001604051908101604052809291908181526020018280546111569061383a565b80156111a35780601f10611178576101008083540402835291602001916111a3565b820191906000526020600020905b81548152906001019060200180831161118657829003601f168201915b505050505081565b60008073ffffffffffffffffffffffffffffffffffffffff168273ffffffffffffffffffffffffffffffffffffffff160361121b576040517f08c379a00000000000000000000000000000000000000000000000000000000081526004016112129061408b565b60405180910390fd5b600360008373ffffffffffffffffffffffffffffffffffffffff1673ffffffffffffffffffffffffffffffffffffffff168152602001908152602001600020549050919050565b61126a611e2e565b73ffffffffffffffffffffffffffffffffffffffff16611288611370565b73ffffffffffffffffffffffffffffffffffffffff16146112de576040517f08c379a00000000000000000000000000000000000000000000000000000000081526004016112d590613b6b565b60405180910390fd5b6112e86000612233565b565b6112f2611e2e565b73ffffffffffffffffffffffffffffffffffffffff16611310611370565b73ffffffffffffffffffffffffffffffffffffffff1614611366576040517f08c379a000000000000000000000000000000000000000000000000000000000815260040161135d90613b6b565b60405180910390fd5b8060118190555050565b6000600a60009054906101000a900473ffffffffffffffffffffffffffffffffffffffff16905090565b6060600180546113a99061383a565b80601f01602080910402602001604051908101604052809291908181526020018280546113d59061383a565b80156114225780601f106113f757610100808354040283529160200191611422565b820191906000526020600020905b81548152906001019060200180831161140557829003601f168201915b5050505050905090565b6000611436610bf8565b90506000821161147b576040517f08c379a0000000000000000000000000000000000000000000000000000000008152600401611472906140f7565b60405180910390fd5b6011548211156114c0576040517f08c379a00000000000000000000000000000000000000000000000000000000081526004016114b790614189565b60405180910390fd5b60105482826114cf91906141a9565b1115611510576040517f08c379a000000000000000000000000000000000000000000000000000000000815260040161150790614229565b60405180910390fd5b611518611370565b73ffffffffffffffffffffffffffffffffffffffff163373ffffffffffffffffffffffffffffffffffffffff16146115ed576000611555336111ab565b9050601254811061159b576040517f08c379a000000000000000000000000000000000000000000000000000000000815260040161159290614295565b60405180910390fd5b82600f546115a991906142b5565b3410156115eb576040517f08c379a00000000000000000000000000000000000000000000000000000000081526004016115e290614343565b60405180910390fd5b505b6000600190505b8281116116235761161033828461160b91906141a9565b6122f9565b808061161b90613c2f565b9150506115f4565b505050565b61163a611633611e2e565b8383612317565b5050565b611646611e2e565b73ffffffffffffffffffffffffffffffffffffffff16611664611370565b73ffffffffffffffffffffffffffffffffffffffff16146116ba576040517f08c379a00000000000000000000000000000000000000000000000000000000081526004016116b190613b6b565b60405180910390fd5b6001601360006101000a81548160ff021916908315150217905550565b6116e86116e2611e2e565b83611eef565b611727576040517f08c379a000000000000000000000000000000000000000000000000000000000815260040161171e90613a6d565b60405180910390fd5b61173384848484612483565b50505050565b60125481565b600c805461174c9061383a565b80601f01602080910402602001604051908101604052809291908181526020018280546117789061383a565b80156117c55780601f1061179a576101008083540402835291602001916117c5565b820191906000526020600020905b8154815290600101906020018083116117a857829003601f168201915b505050505081565b60606117d882611dc2565b611817576040517f08c379a000000000000000000000000000000000000000000000000000000000815260040161180e906143d5565b60405180910390fd5b60001515601360009054906101000a900460ff161515036118c457600d805461183f9061383a565b80601f016020809104026020016040519081016040528092919081815260200182805461186b9061383a565b80156118b85780601f1061188d576101008083540402835291602001916118b8565b820191906000526020600020905b81548152906001019060200180831161189b57829003601f168201915b50505050509050611920565b60006118ce6124f2565b905060008151116118ee576040518060200160405280600081525061191c565b806118f884612584565b600c60405160200161190c939291906144b4565b6040516020818303038152906040525b9150505b919050565b61192d611e2e565b73ffffffffffffffffffffffffffffffffffffffff1661194b611370565b73ffffffffffffffffffffffffffffffffffffffff16146119a1576040517f08c379a000000000000000000000000000000000000000000000000000000000815260040161199890613b6b565b60405180910390fd5b8060128190555050565b60105481565b6119b9611e2e565b73ffffffffffffffffffffffffffffffffffffffff166119d7611370565b73ffffffffffffffffffffffffffffffffffffffff1614611a2d576040517f08c379a0000000000000000000000000000000000000000000000000000000008152600401611a2490613b6b565b60405180910390fd5b80600c9081611a3c9190613eb5565b5050565b6000600560008473ffffffffffffffffffffffffffffffffffffffff1673ffffffffffffffffffffffffffffffffffffffff16815260200190815260200160002060008373ffffffffffffffffffffffffffffffffffffffff1673ffffffffffffffffffffffffffffffffffffffff16815260200190815260200160002060009054906101000a900460ff16905092915050565b611adc611e2e565b73ffffffffffffffffffffffffffffffffffffffff16611afa611370565b73ffffffffffffffffffffffffffffffffffffffff1614611b50576040517f08c379a0000000000000000000000000000000000000000000000000000000008152600401611b4790613b6b565b60405180910390fd5b80600d9081611b5f9190613eb5565b5050565b611b6b611e2e565b73ffffffffffffffffffffffffffffffffffffffff16611b89611370565b73ffffffffffffffffffffffffffffffffffffffff1614611bdf576040517f08c379a0000000000000000000000000000000000000000000000000000000008152600401611bd690613b6b565b60405180910390fd5b600073ffffffffffffffffffffffffffffffffffffffff168173ffffffffffffffffffffffffffffffffffffffff1603611c4e576040517f08c379a0000000000000000000000000000000000000000000000000000000008152600401611c4590614557565b60405180910390fd5b611c5781612233565b50565b611c62611e2e565b73ffffffffffffffffffffffffffffffffffffffff16611c80611370565b73ffffffffffffffffffffffffffffffffffffffff1614611cd6576040517f08c379a0000000000000000000000000000000000000000000000000000000008152600401611ccd90613b6b565b60405180910390fd5b8060108190555050565b60007f80ac58cd000000000000000000000000000000000000000000000000000000007bffffffffffffffffffffffffffffffffffffffffffffffffffffffff1916827bffffffffffffffffffffffffffffffffffffffffffffffffffffffff19161480611dab57507f5b5e139f000000000000000000000000000000000000000000000000000000007bffffffffffffffffffffffffffffffffffffffffffffffffffffffff1916827bffffffffffffffffffffffffffffffffffffffffffffffffffffffff1916145b80611dbb5750611dba826126e4565b5b9050919050565b60008073ffffffffffffffffffffffffffffffffffffffff166002600084815260200190815260200160002060009054906101000a900473ffffffffffffffffffffffffffffffffffffffff1673ffffffffffffffffffffffffffffffffffffffff1614159050919050565b600033905090565b816004600083815260200190815260200160002060006101000a81548173ffffffffffffffffffffffffffffffffffffffff021916908373ffffffffffffffffffffffffffffffffffffffff160217905550808273ffffffffffffffffffffffffffffffffffffffff16611ea98361106c565b73ffffffffffffffffffffffffffffffffffffffff167f8c5be1e5ebec7d5bd14f71427d1e84f3dd0314c0f7b2291e5b200ac8c7c3b92560405160405180910390a45050565b6000611efa82611dc2565b611f39576040517f08c379a0000000000000000000000000000000000000000000000000000000008152600401611f30906145e9565b60405180910390fd5b6000611f448361106c565b90508073ffffffffffffffffffffffffffffffffffffffff168473ffffffffffffffffffffffffffffffffffffffff161480611f865750611f858185611a40565b5b80611fc457508373ffffffffffffffffffffffffffffffffffffffff16611fac846109c8565b73ffffffffffffffffffffffffffffffffffffffff16145b91505092915050565b8273ffffffffffffffffffffffffffffffffffffffff16611fed8261106c565b73ffffffffffffffffffffffffffffffffffffffff1614612043576040517f08c379a000000000000000000000000000000000000000000000000000000000815260040161203a9061467b565b60405180910390fd5b600073ffffffffffffffffffffffffffffffffffffffff168273ffffffffffffffffffffffffffffffffffffffff16036120b2576040517f08c379a00000000000000000000000000000000000000000000000000000000081526004016120a99061470d565b60405180910390fd5b6120bd83838361274e565b6120c8600082611e36565b6001600360008573ffffffffffffffffffffffffffffffffffffffff1673ffffffffffffffffffffffffffffffffffffffff1681526020019081526020016000206000828254612118919061472d565b925050819055506001600360008473ffffffffffffffffffffffffffffffffffffffff1673ffffffffffffffffffffffffffffffffffffffff168152602001908152602001600020600082825461216f91906141a9565b92505081905550816002600083815260200190815260200160002060006101000a81548173ffffffffffffffffffffffffffffffffffffffff021916908373ffffffffffffffffffffffffffffffffffffffff160217905550808273ffffffffffffffffffffffffffffffffffffffff168473ffffffffffffffffffffffffffffffffffffffff167fddf252ad1be2c89b69c2b068fc378daa952ba7f163c4a11628f55a4df523b3ef60405160405180910390a461222e838383612860565b505050565b6000600a60009054906101000a900473ffffffffffffffffffffffffffffffffffffffff16905081600a60006101000a81548173ffffffffffffffffffffffffffffffffffffffff021916908373ffffffffffffffffffffffffffffffffffffffff1602179055508173ffffffffffffffffffffffffffffffffffffffff168173ffffffffffffffffffffffffffffffffffffffff167f8be0079c531659141344cd1fd0a4f28419497f9722a3daafe3b4186f6b6457e060405160405180910390a35050565b612313828260405180602001604052806000815250612865565b5050565b8173ffffffffffffffffffffffffffffffffffffffff168373ffffffffffffffffffffffffffffffffffffffff1603612385576040517f08c379a000000000000000000000000000000000000000000000000000000000815260040161237c906147ad565b60405180910390fd5b80600560008573ffffffffffffffffffffffffffffffffffffffff1673ffffffffffffffffffffffffffffffffffffffff16815260200190815260200160002060008473ffffffffffffffffffffffffffffffffffffffff1673ffffffffffffffffffffffffffffffffffffffff16815260200190815260200160002060006101000a81548160ff0219169083151502179055508173ffffffffffffffffffffffffffffffffffffffff168373ffffffffffffffffffffffffffffffffffffffff167f17307eab39ab6107e8899845ad3d59bd9653f200f220920489ca2b5937696c3183604051612476919061313b565b60405180910390a3505050565b61248e848484611fcd565b61249a848484846128d4565b806124ad57506124ac84848484612a2a565b5b6124ec576040517f08c379a00000000000000000000000000000000000000000000000000000000081526004016124e390614865565b60405180910390fd5b50505050565b6060600b80546125019061383a565b80601f016020809104026020016040519081016040528092919081815260200182805461252d9061383a565b801561257a5780601f1061254f5761010080835404028352916020019161257a565b820191906000526020600020905b81548152906001019060200180831161255d57829003601f168201915b5050505050905090565b6060600082036125cb576040518060400160405280600181526020017f300000000000000000000000000000000000000000000000000000000000000081525090506126df565b600082905060005b600082146125fd5780806125e690613c2f565b915050600a826125f691906148b4565b91506125d3565b60008167ffffffffffffffff811115612619576126186134c7565b5b6040519080825280601f01601f19166020018201604052801561264b5781602001600182028036833780820191505090505b5090505b600085146126d857600182612664919061472d565b9150600a8561267391906148e5565b603061267f91906141a9565b60f81b81838151811061269557612694613bd1565b5b60200101907effffffffffffffffffffffffffffffffffffffffffffffffffffffffffffff1916908160001a905350600a856126d191906148b4565b945061264f565b8093505050505b919050565b60007f01ffc9a7000000000000000000000000000000000000000000000000000000007bffffffffffffffffffffffffffffffffffffffffffffffffffffffff1916827bffffffffffffffffffffffffffffffffffffffffffffffffffffffff1916149050919050565b612759838383612b80565b600073ffffffffffffffffffffffffffffffffffffffff168373ffffffffffffffffffffffffffffffffffffffff160361279b5761279681612b85565b6127da565b8173ffffffffffffffffffffffffffffffffffffffff168373ffffffffffffffffffffffffffffffffffffffff16146127d9576127d88382612bce565b5b5b600073ffffffffffffffffffffffffffffffffffffffff168273ffffffffffffffffffffffffffffffffffffffff160361281c5761281781612d3b565b61285b565b8273ffffffffffffffffffffffffffffffffffffffff168273ffffffffffffffffffffffffffffffffffffffff161461285a576128598282612e0c565b5b5b505050565b505050565b61286f8383612e8b565b61287c60008484846128d4565b80612890575061288f6000848484612a2a565b5b6128cf576040517f08c379a00000000000000000000000000000000000000000000000000000000081526004016128c690614865565b60405180910390fd5b505050565b60006128f58473ffffffffffffffffffffffffffffffffffffffff16613064565b15612a1d578373ffffffffffffffffffffffffffffffffffffffff16636745782b61291e611e2e565b8786866040518563ffffffff1660e01b8152600401612940949392919061496b565b6020604051808303816000875af192505050801561297c57506040513d601f19601f8201168201806040525081019061297991906149cc565b60015b6129cd573d80600081146129ac576040519150601f19603f3d011682016040523d82523d6000602084013e6129b1565b606091505b5060008151036129c5576000915050612a22565b805181602001fd5b636745782b60e01b7bffffffffffffffffffffffffffffffffffffffffffffffffffffffff1916817bffffffffffffffffffffffffffffffffffffffffffffffffffffffff191614915050612a22565b600190505b949350505050565b6000612a4b8473ffffffffffffffffffffffffffffffffffffffff16613064565b15612b73578373ffffffffffffffffffffffffffffffffffffffff1663150b7a02612a74611e2e565b8786866040518563ffffffff1660e01b8152600401612a96949392919061496b565b6020604051808303816000875af1925050508015612ad257506040513d601f19601f82011682018060405250810190612acf91906149cc565b60015b612b23573d8060008114612b02576040519150601f19603f3d011682016040523d82523d6000602084013e612b07565b606091505b506000815103612b1b576000915050612b78565b805181602001fd5b63150b7a0260e01b7bffffffffffffffffffffffffffffffffffffffffffffffffffffffff1916817bffffffffffffffffffffffffffffffffffffffffffffffffffffffff191614915050612b78565b600190505b949350505050565b505050565b6008805490506009600083815260200190815260200160002081905550600881908060018154018082558091505060019003906000526020600020016000909190919091505550565b60006001612bdb846111ab565b612be5919061472d565b9050600060076000848152602001908152602001600020549050818114612cca576000600660008673ffffffffffffffffffffffffffffffffffffffff1673ffffffffffffffffffffffffffffffffffffffff168152602001908152602001600020600084815260200190815260200160002054905080600660008773ffffffffffffffffffffffffffffffffffffffff1673ffffffffffffffffffffffffffffffffffffffff168152602001908152602001600020600084815260200190815260200160002081905550816007600083815260200190815260200160002081905550505b6007600084815260200190815260200160002060009055600660008573ffffffffffffffffffffffffffffffffffffffff1673ffffffffffffffffffffffffffffffffffffffff16815260200190815260200160002060008381526020019081526020016000206000905550505050565b60006001600880549050612d4f919061472d565b9050600060096000848152602001908152602001600020549050600060088381548110612d7f57612d7e613bd1565b5b906000526020600020015490508060088381548110612da157612da0613bd1565b5b906000526020600020018190555081600960008381526020019081526020016000208190555060096000858152602001908152602001600020600090556008805480612df057612def6149f9565b5b6001900381819060005260206000200160009055905550505050565b6000612e17836111ab565b905081600660008573ffffffffffffffffffffffffffffffffffffffff1673ffffffffffffffffffffffffffffffffffffffff168152602001908152602001600020600083815260200190815260200160002081905550806007600084815260200190815260200160002081905550505050565b600073ffffffffffffffffffffffffffffffffffffffff168273ffffffffffffffffffffffffffffffffffffffff1603612efa576040517f08c379a0000000000000000000000000000000000000000000000000000000008152600401612ef190614a74565b60405180910390fd5b612f0381611dc2565b15612f43576040517f08c379a0000000000000000000000000000000000000000000000000000000008152600401612f3a90614ae0565b60405180910390fd5b612f4f6000838361274e565b6001600360008473ffffffffffffffffffffffffffffffffffffffff1673ffffffffffffffffffffffffffffffffffffffff1681526020019081526020016000206000828254612f9f91906141a9565b92505081905550816002600083815260200190815260200160002060006101000a81548173ffffffffffffffffffffffffffffffffffffffff021916908373ffffffffffffffffffffffffffffffffffffffff160217905550808273ffffffffffffffffffffffffffffffffffffffff16600073ffffffffffffffffffffffffffffffffffffffff167fddf252ad1be2c89b69c2b068fc378daa952ba7f163c4a11628f55a4df523b3ef60405160405180910390a461306060008383612860565b5050565b6000808273ffffffffffffffffffffffffffffffffffffffff163b119050919050565b6000604051905090565b600080fd5b600080fd5b60007fffffffff0000000000000000000000000000000000000000000000000000000082169050919050565b6130d08161309b565b81146130db57600080fd5b50565b6000813590506130ed816130c7565b92915050565b60006020828403121561310957613108613091565b5b6000613117848285016130de565b91505092915050565b60008115159050919050565b61313581613120565b82525050565b6000602082019050613150600083018461312c565b92915050565b600081519050919050565b600082825260208201905092915050565b60005b83811015613190578082015181840152602081019050613175565b60008484015250505050565b6000601f19601f8301169050919050565b60006131b882613156565b6131c28185613161565b93506131d2818560208601613172565b6131db8161319c565b840191505092915050565b6000602082019050818103600083015261320081846131ad565b905092915050565b6000819050919050565b61321b81613208565b811461322657600080fd5b50565b60008135905061323881613212565b92915050565b60006020828403121561325457613253613091565b5b600061326284828501613229565b91505092915050565b600073ffffffffffffffffffffffffffffffffffffffff82169050919050565b60006132968261326b565b9050919050565b6132a68161328b565b82525050565b60006020820190506132c1600083018461329d565b92915050565b6132d08161328b565b81146132db57600080fd5b50565b6000813590506132ed816132c7565b92915050565b6000806040838503121561330a57613309613091565b5b6000613318858286016132de565b925050602061332985828601613229565b9150509250929050565b61333c81613208565b82525050565b60006020820190506133576000830184613333565b92915050565b60008060006060848603121561337657613375613091565b5b6000613384868287016132de565b9350506020613395868287016132de565b92505060406133a686828701613229565b9150509250925092565b6000602082840312156133c6576133c5613091565b5b60006133d4848285016132de565b91505092915050565b600081519050919050565b600082825260208201905092915050565b6000819050602082019050919050565b61341281613208565b82525050565b60006134248383613409565b60208301905092915050565b6000602082019050919050565b6000613448826133dd565b61345281856133e8565b935061345d836133f9565b8060005b8381101561348e5781516134758882613418565b975061348083613430565b925050600181019050613461565b5085935050505092915050565b600060208201905081810360008301526134b5818461343d565b905092915050565b600080fd5b600080fd5b7f4e487b7100000000000000000000000000000000000000000000000000000000600052604160045260246000fd5b6134ff8261319c565b810181811067ffffffffffffffff8211171561351e5761351d6134c7565b5b80604052505050565b6000613531613087565b905061353d82826134f6565b919050565b600067ffffffffffffffff82111561355d5761355c6134c7565b5b6135668261319c565b9050602081019050919050565b82818337600083830152505050565b600061359561359084613542565b613527565b9050828152602081018484840111156135b1576135b06134c2565b5b6135bc848285613573565b509392505050565b600082601f8301126135d9576135d86134bd565b5b81356135e9848260208601613582565b91505092915050565b60006020828403121561360857613607613091565b5b600082013567ffffffffffffffff81111561362657613625613096565b5b613632848285016135c4565b91505092915050565b61364481613120565b811461364f57600080fd5b50565b6000813590506136618161363b565b92915050565b6000806040838503121561367e5761367d613091565b5b600061368c858286016132de565b925050602061369d85828601613652565b9150509250929050565b600067ffffffffffffffff8211156136c2576136c16134c7565b5b6136cb8261319c565b9050602081019050919050565b60006136eb6136e6846136a7565b613527565b905082815260208101848484011115613707576137066134c2565b5b613712848285613573565b509392505050565b600082601f83011261372f5761372e6134bd565b5b813561373f8482602086016136d8565b91505092915050565b6000806000806080858703121561376257613761613091565b5b6000613770878288016132de565b9450506020613781878288016132de565b935050604061379287828801613229565b925050606085013567ffffffffffffffff8111156137b3576137b2613096565b5b6137bf8782880161371a565b91505092959194509250565b600080604083850312156137e2576137e1613091565b5b60006137f0858286016132de565b9250506020613801858286016132de565b9150509250929050565b7f4e487b7100000000000000000000000000000000000000000000000000000000600052602260045260246000fd5b6000600282049050600182168061385257607f821691505b6020821081036138655761386461380b565b5b50919050565b7f4b495031373a20617070726f76656420717565727920666f72206e6f6e65786960008201527f7374656e7420746f6b656e000000000000000000000000000000000000000000602082015250565b60006138c7602b83613161565b91506138d28261386b565b604082019050919050565b600060208201905081810360008301526138f6816138ba565b9050919050565b7f4b495031373a20617070726f76616c20746f2063757272656e74206f776e6572600082015250565b6000613933602083613161565b915061393e826138fd565b602082019050919050565b6000602082019050818103600083015261396281613926565b9050919050565b7f4b495031373a20617070726f76652063616c6c6572206973206e6f74206f776e60008201527f6572206e6f7220617070726f76656420666f7220616c6c000000000000000000602082015250565b60006139c5603783613161565b91506139d082613969565b604082019050919050565b600060208201905081810360008301526139f4816139b8565b9050919050565b7f4b495031373a207472616e736665722063616c6c6572206973206e6f74206f7760008201527f6e6572206e6f7220617070726f76656400000000000000000000000000000000602082015250565b6000613a57603083613161565b9150613a62826139fb565b604082019050919050565b60006020820190508181036000830152613a8681613a4a565b9050919050565b7f4b49503137456e756d657261626c653a206f776e657220696e646578206f757460008201527f206f6620626f756e647300000000000000000000000000000000000000000000602082015250565b6000613ae9602a83613161565b9150613af482613a8d565b604082019050919050565b60006020820190508181036000830152613b1881613adc565b9050919050565b7f4f776e61626c653a2063616c6c6572206973206e6f7420746865206f776e6572600082015250565b6000613b55602083613161565b9150613b6082613b1f565b602082019050919050565b60006020820190508181036000830152613b8481613b48565b9050919050565b600081905092915050565b50565b6000613ba6600083613b8b565b9150613bb182613b96565b600082019050919050565b6000613bc782613b99565b9150819050919050565b7f4e487b7100000000000000000000000000000000000000000000000000000000600052603260045260246000fd5b7f4e487b7100000000000000000000000000000000000000000000000000000000600052601160045260246000fd5b6000613c3a82613208565b91507fffffffffffffffffffffffffffffffffffffffffffffffffffffffffffffffff8203613c6c57613c6b613c00565b5b600182019050919050565b7f4b49503137456e756d657261626c653a20676c6f62616c20696e646578206f7560008201527f74206f6620626f756e6473000000000000000000000000000000000000000000602082015250565b6000613cd3602b83613161565b9150613cde82613c77565b604082019050919050565b60006020820190508181036000830152613d0281613cc6565b9050919050565b60008190508160005260206000209050919050565b60006020601f8301049050919050565b600082821b905092915050565b600060088302613d6b7fffffffffffffffffffffffffffffffffffffffffffffffffffffffffffffffff82613d2e565b613d758683613d2e565b95508019841693508086168417925050509392505050565b6000819050919050565b6000613db2613dad613da884613208565b613d8d565b613208565b9050919050565b6000819050919050565b613dcc83613d97565b613de0613dd882613db9565b848454613d3b565b825550505050565b600090565b613df5613de8565b613e00818484613dc3565b505050565b5b81811015613e2457613e19600082613ded565b600181019050613e06565b5050565b601f821115613e6957613e3a81613d09565b613e4384613d1e565b81016020851015613e52578190505b613e66613e5e85613d1e565b830182613e05565b50505b505050565b600082821c905092915050565b6000613e8c60001984600802613e6e565b1980831691505092915050565b6000613ea58383613e7b565b9150826002028217905092915050565b613ebe82613156565b67ffffffffffffffff811115613ed757613ed66134c7565b5b613ee1825461383a565b613eec828285613e28565b600060209050601f831160018114613f1f5760008415613f0d578287015190505b613f178582613e99565b865550613f7f565b601f198416613f2d86613d09565b60005b82811015613f5557848901518255600182019150602085019450602081019050613f30565b86831015613f725784890151613f6e601f891682613e7b565b8355505b6001600288020188555050505b505050505050565b7f4b495031373a206f776e657220717565727920666f72206e6f6e65786973746560008201527f6e7420746f6b656e000000000000000000000000000000000000000000000000602082015250565b6000613fe3602883613161565b9150613fee82613f87565b604082019050919050565b6000602082019050818103600083015261401281613fd6565b9050919050565b7f4b495031373a2061646472657373207a65726f206973206e6f7420612076616c60008201527f6964206f776e6572000000000000000000000000000000000000000000000000602082015250565b6000614075602883613161565b915061408082614019565b604082019050919050565b600060208201905081810360008301526140a481614068565b9050919050565b7f6e65656420746f206d696e74206174206c656173742031204e46540000000000600082015250565b60006140e1601b83613161565b91506140ec826140ab565b602082019050919050565b60006020820190508181036000830152614110816140d4565b9050919050565b7f6d6178206d696e7420616d6f756e74207065722073657373696f6e206578636560008201527f6564656400000000000000000000000000000000000000000000000000000000602082015250565b6000614173602483613161565b915061417e82614117565b604082019050919050565b600060208201905081810360008301526141a281614166565b9050919050565b60006141b482613208565b91506141bf83613208565b92508282019050808211156141d7576141d6613c00565b5b92915050565b7f6d6178204e4654206c696d697420657863656564656400000000000000000000600082015250565b6000614213601683613161565b915061421e826141dd565b602082019050919050565b6000602082019050818103600083015261424281614206565b9050919050565b7f6d6178204e465420706572206164647265737320657863656564656400000000600082015250565b600061427f601c83613161565b915061428a82614249565b602082019050919050565b600060208201905081810360008301526142ae81614272565b9050919050565b60006142c082613208565b91506142cb83613208565b92508282026142d981613208565b915082820484148315176142f0576142ef613c00565b5b5092915050565b7f696e73756666696369656e742066756e64730000000000000000000000000000600082015250565b600061432d601283613161565b9150614338826142f7565b602082019050919050565b6000602082019050818103600083015261435c81614320565b9050919050565b7f4552433732314d657461646174613a2055524920717565727920666f72206e6f60008201527f6e6578697374656e7420746f6b656e0000000000000000000000000000000000602082015250565b60006143bf602f83613161565b91506143ca82614363565b604082019050919050565b600060208201905081810360008301526143ee816143b2565b9050919050565b600081905092915050565b600061440b82613156565b61441581856143f5565b9350614425818560208601613172565b80840191505092915050565b6000815461443e8161383a565b61444881866143f5565b945060018216600081146144635760018114614478576144ab565b60ff19831686528115158202860193506144ab565b61448185613d09565b60005b838110156144a357815481890152600182019150602081019050614484565b838801955050505b50505092915050565b60006144c08286614400565b91506144cc8285614400565b91506144d88284614431565b9150819050949350505050565b7f4f776e61626c653a206e6577206f776e657220697320746865207a65726f206160008201527f6464726573730000000000000000000000000000000000000000000000000000602082015250565b6000614541602683613161565b915061454c826144e5565b604082019050919050565b6000602082019050818103600083015261457081614534565b9050919050565b7f4b495031373a206f70657261746f7220717565727920666f72206e6f6e65786960008201527f7374656e7420746f6b656e000000000000000000000000000000000000000000602082015250565b60006145d3602b83613161565b91506145de82614577565b604082019050919050565b60006020820190508181036000830152614602816145c6565b9050919050565b7f4b495031373a207472616e736665722066726f6d20696e636f7272656374206f60008201527f776e657200000000000000000000000000000000000000000000000000000000602082015250565b6000614665602483613161565b915061467082614609565b604082019050919050565b6000602082019050818103600083015261469481614658565b9050919050565b7f4b495031373a207472616e7366657220746f20746865207a65726f206164647260008201527f6573730000000000000000000000000000000000000000000000000000000000602082015250565b60006146f7602383613161565b91506147028261469b565b604082019050919050565b60006020820190508181036000830152614726816146ea565b9050919050565b600061473882613208565b915061474383613208565b925082820390508181111561475b5761475a613c00565b5b92915050565b7f4b495031373a20617070726f766520746f2063616c6c65720000000000000000600082015250565b6000614797601883613161565b91506147a282614761565b602082019050919050565b600060208201905081810360008301526147c68161478a565b9050919050565b7f4b495031373a207472616e7366657220746f206e6f6e20494b4950313752656360008201527f65697665722f49455243373231526563656976657220696d706c656d656e746560208201527f7200000000000000000000000000000000000000000000000000000000000000604082015250565b600061484f604183613161565b915061485a826147cd565b606082019050919050565b6000602082019050818103600083015261487e81614842565b9050919050565b7f4e487b7100000000000000000000000000000000000000000000000000000000600052601260045260246000fd5b60006148bf82613208565b91506148ca83613208565b9250826148da576148d9614885565b5b828204905092915050565b60006148f082613208565b91506148fb83613208565b92508261490b5761490a614885565b5b828206905092915050565b600081519050919050565b600082825260208201905092915050565b600061493d82614916565b6149478185614921565b9350614957818560208601613172565b6149608161319c565b840191505092915050565b6000608082019050614980600083018761329d565b61498d602083018661329d565b61499a6040830185613333565b81810360608301526149ac8184614932565b905095945050505050565b6000815190506149c6816130c7565b92915050565b6000602082840312156149e2576149e1613091565b5b60006149f0848285016149b7565b91505092915050565b7f4e487b7100000000000000000000000000000000000000000000000000000000600052603160045260246000fd5b7f4b495031373a206d696e7420746f20746865207a65726f206164647265737300600082015250565b6000614a5e601f83613161565b9150614a6982614a28565b602082019050919050565b60006020820190508181036000830152614a8d81614a51565b9050919050565b7f4b495031373a20746f6b656e20616c7265616479206d696e7465640000000000600082015250565b6000614aca601b83613161565b9150614ad582614a94565b602082019050919050565b60006020820190508181036000830152614af981614abd565b905091905056fea2646970667358221220e40e0c6ae89ae8802ff0834da9b50e5fd95757a52e15dd6399a9eb0903a31c4064736f6c63430008110033",
  "linkReferences": {},
  "deployedLinkReferences": {}
}